{
  "contractName": "Lottery",
  "abi": [
    {
      "anonymous": false,
      "inputs": [
        {
          "indexed": true,
          "internalType": "address",
          "name": "previousOwner",
          "type": "address"
        },
        {
          "indexed": true,
          "internalType": "address",
          "name": "newOwner",
          "type": "address"
        }
      ],
      "name": "OwnershipTransferred",
      "type": "event"
    },
    {
      "anonymous": false,
      "inputs": [
        {
          "indexed": false,
          "internalType": "address",
          "name": "_from",
          "type": "address"
        },
        {
          "indexed": false,
          "internalType": "uint256",
          "name": "_value",
          "type": "uint256"
        }
      ],
      "name": "Transfer",
      "type": "event"
    },
    {
      "inputs": [],
      "name": "isOpen",
      "outputs": [
        {
          "internalType": "bool",
          "name": "",
          "type": "bool"
        }
      ],
      "stateMutability": "view",
      "type": "function",
      "constant": true
    },
    {
      "inputs": [],
      "name": "owner",
      "outputs": [
        {
          "internalType": "address",
          "name": "",
          "type": "address"
        }
      ],
      "stateMutability": "view",
      "type": "function",
      "constant": true
    },
    {
      "inputs": [
        {
          "internalType": "uint16",
          "name": "",
          "type": "uint16"
        }
      ],
      "name": "participants",
      "outputs": [
        {
          "internalType": "string",
          "name": "name",
          "type": "string"
        },
        {
          "internalType": "address",
          "name": "playerAddress",
          "type": "address"
        },
        {
          "internalType": "uint256",
          "name": "value",
          "type": "uint256"
        }
      ],
      "stateMutability": "view",
      "type": "function",
      "constant": true
    },
    {
      "inputs": [
        {
          "internalType": "address",
          "name": "",
          "type": "address"
        }
      ],
      "name": "participantsNames",
      "outputs": [
        {
          "internalType": "string",
          "name": "",
          "type": "string"
        }
      ],
      "stateMutability": "view",
      "type": "function",
      "constant": true
    },
    {
      "inputs": [],
      "name": "renounceOwnership",
      "outputs": [],
      "stateMutability": "nonpayable",
      "type": "function"
    },
    {
      "inputs": [
        {
          "internalType": "address",
          "name": "newOwner",
          "type": "address"
        }
      ],
      "name": "transferOwnership",
      "outputs": [],
      "stateMutability": "nonpayable",
      "type": "function"
    },
    {
      "inputs": [
        {
          "internalType": "bool",
          "name": "_isOpen",
          "type": "bool"
        }
      ],
      "name": "setIsOpen",
      "outputs": [],
      "stateMutability": "nonpayable",
      "type": "function"
    },
    {
      "inputs": [
        {
          "internalType": "string",
          "name": "name",
          "type": "string"
        }
      ],
      "name": "transfer",
      "outputs": [],
      "stateMutability": "payable",
      "type": "function",
      "payable": true
    },
    {
      "inputs": [
        {
          "internalType": "uint8",
          "name": "percent",
          "type": "uint8"
        }
      ],
      "name": "getPercentValue",
      "outputs": [
        {
          "internalType": "uint256",
          "name": "",
          "type": "uint256"
        }
      ],
      "stateMutability": "view",
      "type": "function",
      "constant": true
    },
    {
      "inputs": [
        {
          "internalType": "address payable[]",
          "name": "currentWinners",
          "type": "address[]"
        }
      ],
      "name": "sendEthToWinners",
      "outputs": [
        {
          "internalType": "bool",
          "name": "",
          "type": "bool"
        }
      ],
      "stateMutability": "payable",
      "type": "function",
      "payable": true
    }
  ],
  "bytecode": "0x6080604052612710600060156101000a81548163ffffffff021916908363ffffffff16021790555060006001556014600260006101000a81548160ff021916908360ff1602179055506000600260016101000a81548161ffff021916908361ffff1602179055506064600260036101000a81548161ffff021916908361ffff16021790555034801561009057600080fd5b506100ad6100a26100b260201b60201c565b6100ba60201b60201c565b61017e565b600033905090565b60008060009054906101000a900473ffffffffffffffffffffffffffffffffffffffff169050816000806101000a81548173ffffffffffffffffffffffffffffffffffffffff021916908373ffffffffffffffffffffffffffffffffffffffff1602179055508173ffffffffffffffffffffffffffffffffffffffff168173ffffffffffffffffffffffffffffffffffffffff167f8be0079c531659141344cd1fd0a4f28419497f9722a3daafe3b4186f6b6457e060405160405180910390a35050565b6117e88061018d6000396000f3fe6080604052600436106100915760003560e01c80636fdc3569116100595780636fdc356914610196578063715018a6146101d35780638da5cb5b146101ea578063a0258d0b14610215578063f2fde38b1461023157610091565b8063085a10cf146100965780633bb150a8146100bf57806347535d7b146100ef5780634a04774e1461011a5780636baa03f014610157575b600080fd5b3480156100a257600080fd5b506100bd60048036038101906100b89190610ccb565b61025a565b005b6100d960048036038101906100d49190610eaf565b6102f3565b6040516100e69190610f07565b60405180910390f35b3480156100fb57600080fd5b506101046104b9565b6040516101119190610f07565b60405180910390f35b34801561012657600080fd5b50610141600480360381019061013c9190610f5b565b6104cc565b60405161014e9190610fa1565b60405180910390f35b34801561016357600080fd5b5061017e60048036038101906101799190610ff6565b6104f2565b60405161018d939291906110cc565b60405180910390f35b3480156101a257600080fd5b506101bd60048036038101906101b89190611136565b6105c4565b6040516101ca9190611163565b60405180910390f35b3480156101df57600080fd5b506101e8610664565b005b3480156101f657600080fd5b506101ff6106ec565b60405161020c9190611185565b60405180910390f35b61022f600480360381019061022a9190611255565b610715565b005b34801561023d57600080fd5b5061025860048036038101906102539190611136565b610a19565b005b610262610b10565b73ffffffffffffffffffffffffffffffffffffffff166102806106ec565b73ffffffffffffffffffffffffffffffffffffffff16146102d6576040517f08c379a00000000000000000000000000000000000000000000000000000000081526004016102cd906112ea565b60405180910390fd5b80600060146101000a81548160ff02191690831515021790555050565b60006102fd610b10565b73ffffffffffffffffffffffffffffffffffffffff1661031b6106ec565b73ffffffffffffffffffffffffffffffffffffffff1614610371576040517f08c379a0000000000000000000000000000000000000000000000000000000008152600401610368906112ea565b60405180910390fd5b60005b82518161ffff1610156104af57600061039b600260009054906101000a900460ff166104cc565b90506000848361ffff16815181106103b6576103b561130a565b5b602002602001015173ffffffffffffffffffffffffffffffffffffffff166108fc839081150290604051600060405180830381858888f193505050509050801561049a57816001600082825461040c9190611368565b9250508190555060008361ffff16036104565760028060008282829054906101000a900460ff1661043d91906113cb565b92506101000a81548160ff021916908360ff1602179055505b60038361ffff161115610499576064606060015461047491906113fc565b61047e919061142d565b600260006101000a81548160ff021916908360ff1602179055505b5b505080806104a790611487565b915050610374565b5060019050919050565b600060149054906101000a900460ff1681565b60006064826104db91906113cb565b60ff166001546104eb919061142d565b9050919050565b6003602052806000526040600020600091509050806000018054610515906114e0565b80601f0160208091040260200160405190810160405280929190818152602001828054610541906114e0565b801561058e5780601f106105635761010080835404028352916020019161058e565b820191906000526020600020905b81548152906001019060200180831161057157829003601f168201915b5050505050908060010160009054906101000a900473ffffffffffffffffffffffffffffffffffffffff16908060020154905083565b600460205280600052604060002060009150905080546105e3906114e0565b80601f016020809104026020016040519081016040528092919081815260200182805461060f906114e0565b801561065c5780601f106106315761010080835404028352916020019161065c565b820191906000526020600020905b81548152906001019060200180831161063f57829003601f168201915b505050505081565b61066c610b10565b73ffffffffffffffffffffffffffffffffffffffff1661068a6106ec565b73ffffffffffffffffffffffffffffffffffffffff16146106e0576040517f08c379a00000000000000000000000000000000000000000000000000000000081526004016106d7906112ea565b60405180910390fd5b6106ea6000610b18565b565b60008060009054906101000a900473ffffffffffffffffffffffffffffffffffffffff16905090565b600260039054906101000a900461ffff1661ffff16600260019054906101000a900461ffff1661ffff161061077f576040517f08c379a000000000000000000000000000000000000000000000000000000000815260040161077690611583565b60405180910390fd5b600060159054906101000a900463ffffffff1663ffffffff163410156107da576040517f08c379a00000000000000000000000000000000000000000000000000000000081526004016107d1906115ef565b60405180910390fd5b6000600460003373ffffffffffffffffffffffffffffffffffffffff1673ffffffffffffffffffffffffffffffffffffffff1681526020019081526020016000208054610826906114e0565b905014610868576040517f08c379a000000000000000000000000000000000000000000000000000000000815260040161085f90611681565b60405180910390fd5b346001600082825461087a91906116a1565b9250508190555080600460003373ffffffffffffffffffffffffffffffffffffffff1673ffffffffffffffffffffffffffffffffffffffff16815260200190815260200160002090805190602001906108d4929190610bdc565b5060405180606001604052808281526020013373ffffffffffffffffffffffffffffffffffffffff1681526020013481525060036000600260019054906101000a900461ffff1661ffff1661ffff168152602001908152602001600020600082015181600001908051906020019061094d929190610bdc565b5060208201518160010160006101000a81548173ffffffffffffffffffffffffffffffffffffffff021916908373ffffffffffffffffffffffffffffffffffffffff160217905550604082015181600201559050506002600181819054906101000a900461ffff16809291906109c290611487565b91906101000a81548161ffff021916908361ffff160217905550507f69ca02dd4edd7bf0a4abb9ed3b7af3f14778db5d61921c7dc7cd545266326de23334604051610a0e9291906116f7565b60405180910390a150565b610a21610b10565b73ffffffffffffffffffffffffffffffffffffffff16610a3f6106ec565b73ffffffffffffffffffffffffffffffffffffffff1614610a95576040517f08c379a0000000000000000000000000000000000000000000000000000000008152600401610a8c906112ea565b60405180910390fd5b600073ffffffffffffffffffffffffffffffffffffffff168173ffffffffffffffffffffffffffffffffffffffff1603610b04576040517f08c379a0000000000000000000000000000000000000000000000000000000008152600401610afb90611792565b60405180910390fd5b610b0d81610b18565b50565b600033905090565b60008060009054906101000a900473ffffffffffffffffffffffffffffffffffffffff169050816000806101000a81548173ffffffffffffffffffffffffffffffffffffffff021916908373ffffffffffffffffffffffffffffffffffffffff1602179055508173ffffffffffffffffffffffffffffffffffffffff168173ffffffffffffffffffffffffffffffffffffffff167f8be0079c531659141344cd1fd0a4f28419497f9722a3daafe3b4186f6b6457e060405160405180910390a35050565b828054610be8906114e0565b90600052602060002090601f016020900481019282610c0a5760008555610c51565b82601f10610c2357805160ff1916838001178555610c51565b82800160010185558215610c51579182015b82811115610c50578251825591602001919060010190610c35565b5b509050610c5e9190610c62565b5090565b5b80821115610c7b576000816000905550600101610c63565b5090565b6000604051905090565b600080fd5b600080fd5b60008115159050919050565b610ca881610c93565b8114610cb357600080fd5b50565b600081359050610cc581610c9f565b92915050565b600060208284031215610ce157610ce0610c89565b5b6000610cef84828501610cb6565b91505092915050565b600080fd5b6000601f19601f8301169050919050565b7f4e487b7100000000000000000000000000000000000000000000000000000000600052604160045260246000fd5b610d4682610cfd565b810181811067ffffffffffffffff82111715610d6557610d64610d0e565b5b80604052505050565b6000610d78610c7f565b9050610d848282610d3d565b919050565b600067ffffffffffffffff821115610da457610da3610d0e565b5b602082029050602081019050919050565b600080fd5b600073ffffffffffffffffffffffffffffffffffffffff82169050919050565b6000610de582610dba565b9050919050565b610df581610dda565b8114610e0057600080fd5b50565b600081359050610e1281610dec565b92915050565b6000610e2b610e2684610d89565b610d6e565b90508083825260208201905060208402830185811115610e4e57610e4d610db5565b5b835b81811015610e775780610e638882610e03565b845260208401935050602081019050610e50565b5050509392505050565b600082601f830112610e9657610e95610cf8565b5b8135610ea6848260208601610e18565b91505092915050565b600060208284031215610ec557610ec4610c89565b5b600082013567ffffffffffffffff811115610ee357610ee2610c8e565b5b610eef84828501610e81565b91505092915050565b610f0181610c93565b82525050565b6000602082019050610f1c6000830184610ef8565b92915050565b600060ff82169050919050565b610f3881610f22565b8114610f4357600080fd5b50565b600081359050610f5581610f2f565b92915050565b600060208284031215610f7157610f70610c89565b5b6000610f7f84828501610f46565b91505092915050565b6000819050919050565b610f9b81610f88565b82525050565b6000602082019050610fb66000830184610f92565b92915050565b600061ffff82169050919050565b610fd381610fbc565b8114610fde57600080fd5b50565b600081359050610ff081610fca565b92915050565b60006020828403121561100c5761100b610c89565b5b600061101a84828501610fe1565b91505092915050565b600081519050919050565b600082825260208201905092915050565b60005b8381101561105d578082015181840152602081019050611042565b8381111561106c576000848401525b50505050565b600061107d82611023565b611087818561102e565b935061109781856020860161103f565b6110a081610cfd565b840191505092915050565b60006110b682610dba565b9050919050565b6110c6816110ab565b82525050565b600060608201905081810360008301526110e68186611072565b90506110f560208301856110bd565b6111026040830184610f92565b949350505050565b611113816110ab565b811461111e57600080fd5b50565b6000813590506111308161110a565b92915050565b60006020828403121561114c5761114b610c89565b5b600061115a84828501611121565b91505092915050565b6000602082019050818103600083015261117d8184611072565b905092915050565b600060208201905061119a60008301846110bd565b92915050565b600080fd5b600067ffffffffffffffff8211156111c0576111bf610d0e565b5b6111c982610cfd565b9050602081019050919050565b82818337600083830152505050565b60006111f86111f3846111a5565b610d6e565b905082815260208101848484011115611214576112136111a0565b5b61121f8482856111d6565b509392505050565b600082601f83011261123c5761123b610cf8565b5b813561124c8482602086016111e5565b91505092915050565b60006020828403121561126b5761126a610c89565b5b600082013567ffffffffffffffff81111561128957611288610c8e565b5b61129584828501611227565b91505092915050565b7f4f776e61626c653a2063616c6c6572206973206e6f7420746865206f776e6572600082015250565b60006112d460208361102e565b91506112df8261129e565b602082019050919050565b60006020820190508181036000830152611303816112c7565b9050919050565b7f4e487b7100000000000000000000000000000000000000000000000000000000600052603260045260246000fd5b7f4e487b7100000000000000000000000000000000000000000000000000000000600052601160045260246000fd5b600061137382610f88565b915061137e83610f88565b92508282101561139157611390611339565b5b828203905092915050565b7f4e487b7100000000000000000000000000000000000000000000000000000000600052601260045260246000fd5b60006113d682610f22565b91506113e183610f22565b9250826113f1576113f061139c565b5b828204905092915050565b600061140782610f88565b915061141283610f88565b9250826114225761142161139c565b5b828204905092915050565b600061143882610f88565b915061144383610f88565b9250817fffffffffffffffffffffffffffffffffffffffffffffffffffffffffffffffff048311821515161561147c5761147b611339565b5b828202905092915050565b600061149282610fbc565b915061ffff82036114a6576114a5611339565b5b600182019050919050565b7f4e487b7100000000000000000000000000000000000000000000000000000000600052602260045260246000fd5b600060028204905060018216806114f857607f821691505b60208210810361150b5761150a6114b1565b5b50919050565b7f5468657265206973206e6f206d6f726520737061636520666f7220796f75207460008201527f6f206a6f696e0000000000000000000000000000000000000000000000000000602082015250565b600061156d60268361102e565b915061157882611511565b604082019050919050565b6000602082019050818103600083015261159c81611560565b9050919050565b7f4e656564206d6f72652045544820746f20616363657373204c6f747465727900600082015250565b60006115d9601f8361102e565b91506115e4826115a3565b602082019050919050565b60006020820190508181036000830152611608816115cc565b9050919050565b7f596f752063616e2774207061727469636970617465206d6f7265207468616e2060008201527f6f6e636520696e20746865206c6f747465727900000000000000000000000000602082015250565b600061166b60338361102e565b91506116768261160f565b604082019050919050565b6000602082019050818103600083015261169a8161165e565b9050919050565b60006116ac82610f88565b91506116b783610f88565b9250827fffffffffffffffffffffffffffffffffffffffffffffffffffffffffffffffff038211156116ec576116eb611339565b5b828201905092915050565b600060408201905061170c60008301856110bd565b6117196020830184610f92565b9392505050565b7f4f776e61626c653a206e6577206f776e657220697320746865207a65726f206160008201527f6464726573730000000000000000000000000000000000000000000000000000602082015250565b600061177c60268361102e565b915061178782611720565b604082019050919050565b600060208201905081810360008301526117ab8161176f565b905091905056fea2646970667358221220a9d82d53d7d23f3c2e33adfae87213c88e1e4ba0487e63eaa5ead382887f95d664736f6c634300080d0033",
  "immutableReferences": {},
  "source": "// SPDX-License-Identifier: MIT\npragma solidity ^0.8.0;\n\nimport \"@openzeppelin/contracts/access/Ownable.sol\";\n\ncontract Lottery is Ownable {\n    bool public isOpen;\n\n    uint32 minFee = 10000 wei;\n    uint256 currentValue = 0;\n\n    uint8 currentPercent = 20;\n    uint16 participantCount = 0;\n    uint16 maxParticipants = 100;\n\n    struct Player {\n        string name;\n        address playerAddress;\n        uint256 value;\n    }\n\n    mapping(uint16 => Player) public participants;\n    mapping(address => string) public participantsNames;\n\n    event Transfer(address _from, uint256 _value);\n\n    function setIsOpen(bool _isOpen) public onlyOwner {\n        isOpen = _isOpen;\n    }\n\n    function transfer(string memory name) public payable {\n        require(\n            participantCount < maxParticipants,\n            \"There is no more space for you to join\"\n        );\n        require(msg.value >= minFee, \"Need more ETH to access Lottery\");\n        require(\n            bytes(participantsNames[msg.sender]).length == 0,\n            \"You can't participate more than once in the lottery\"\n        );\n\n        currentValue += msg.value;\n\n        participantsNames[msg.sender] = name;\n        participants[participantCount] = Player(name, msg.sender, msg.value);\n        participantCount++;\n\n        emit Transfer(msg.sender, msg.value);\n    }\n\n    function getPercentValue(uint8 percent) public view returns (uint256) {\n        return currentValue * (percent / 100);\n    }\n\n    function sendEthToWinners(address payable[] memory currentWinners)\n        public\n        payable\n        onlyOwner\n        returns (bool)\n    {\n        for (uint16 i = 0; i < currentWinners.length; i++) {\n            uint256 curWinnerEther = getPercentValue(currentPercent);\n            bool sent = currentWinners[i].send(curWinnerEther);\n\n            if (sent) {\n                currentValue -= curWinnerEther;\n\n                if (i == 0) currentPercent /= 2;\n\n                if (i > 3) currentPercent = uint8((currentValue / 96) * 100);\n            }\n        }\n\n        return true;\n    }\n}\n",
  "sourcePath": "/home/nuxxxcake/Desktop/ether_erc/contracts/Lottery.sol",
  "compiler": {
    "name": "solc",
    "version": "0.8.13+commit.abaa5c0e.Emscripten.clang"
  },
  "schemaVersion": "3.4.6",
  "updatedAt": "2022-04-11T11:54:42.220Z",
  "networkType": "ethereum",
  "devdoc": {
    "kind": "dev",
    "methods": {
      "owner()": {
        "details": "Returns the address of the current owner."
      },
      "renounceOwnership()": {
        "details": "Leaves the contract without owner. It will not be possible to call `onlyOwner` functions anymore. Can only be called by the current owner. NOTE: Renouncing ownership will leave the contract without an owner, thereby removing any functionality that is only available to the owner."
      },
      "transferOwnership(address)": {
        "details": "Transfers ownership of the contract to a new account (`newOwner`). Can only be called by the current owner."
      }
    },
    "version": 1
  },
  "userdoc": {
    "kind": "user",
    "methods": {},
    "version": 1
  }
}