{
  "contractName": "Lottery",
  "abi": [
    {
      "anonymous": false,
      "inputs": [
        {
          "indexed": true,
          "internalType": "address",
          "name": "previousOwner",
          "type": "address"
        },
        {
          "indexed": true,
          "internalType": "address",
          "name": "newOwner",
          "type": "address"
        }
      ],
      "name": "OwnershipTransferred",
      "type": "event"
    },
    {
      "anonymous": false,
      "inputs": [
        {
          "indexed": false,
          "internalType": "address",
          "name": "_from",
          "type": "address"
        },
        {
          "indexed": false,
          "internalType": "uint256",
          "name": "_value",
          "type": "uint256"
        }
      ],
      "name": "Transfer",
      "type": "event"
    },
    {
      "inputs": [],
      "name": "isOpen",
      "outputs": [
        {
          "internalType": "bool",
          "name": "",
          "type": "bool"
        }
      ],
      "stateMutability": "view",
      "type": "function",
      "constant": true
    },
    {
      "inputs": [],
      "name": "owner",
      "outputs": [
        {
          "internalType": "address",
          "name": "",
          "type": "address"
        }
      ],
      "stateMutability": "view",
      "type": "function",
      "constant": true
    },
    {
      "inputs": [
        {
          "internalType": "address",
          "name": "",
          "type": "address"
        }
      ],
      "name": "participants",
      "outputs": [
        {
          "internalType": "string",
          "name": "",
          "type": "string"
        }
      ],
      "stateMutability": "view",
      "type": "function",
      "constant": true
    },
    {
      "inputs": [],
      "name": "renounceOwnership",
      "outputs": [],
      "stateMutability": "nonpayable",
      "type": "function"
    },
    {
      "inputs": [
        {
          "internalType": "address",
          "name": "newOwner",
          "type": "address"
        }
      ],
      "name": "transferOwnership",
      "outputs": [],
      "stateMutability": "nonpayable",
      "type": "function"
    },
    {
      "inputs": [
        {
          "internalType": "bool",
          "name": "_isOpen",
          "type": "bool"
        }
      ],
      "name": "setIsOpen",
      "outputs": [],
      "stateMutability": "nonpayable",
      "type": "function"
    },
    {
      "inputs": [],
      "name": "fiveMinutesHavePassed",
      "outputs": [
        {
          "internalType": "bool",
          "name": "",
          "type": "bool"
        }
      ],
      "stateMutability": "view",
      "type": "function",
      "constant": true
    },
    {
      "inputs": [
        {
          "internalType": "string",
          "name": "name",
          "type": "string"
        }
      ],
      "name": "transfer",
      "outputs": [],
      "stateMutability": "payable",
      "type": "function",
      "payable": true
    },
    {
      "inputs": [
        {
          "internalType": "uint8",
          "name": "percent",
          "type": "uint8"
        }
      ],
      "name": "getPercentValue",
      "outputs": [
        {
          "internalType": "uint256",
          "name": "",
          "type": "uint256"
        }
      ],
      "stateMutability": "view",
      "type": "function",
      "constant": true
    },
    {
      "inputs": [
        {
          "internalType": "address payable[]",
          "name": "currentWinners",
          "type": "address[]"
        }
      ],
      "name": "sendEthToWinners",
      "outputs": [
        {
          "internalType": "bool",
          "name": "",
          "type": "bool"
        }
      ],
      "stateMutability": "payable",
      "type": "function",
      "payable": true
    }
  ],
  "bytecode": "0x608060405242600155612710600260006101000a81548163ffffffff021916908363ffffffff16021790555060006003556014600460006101000a81548160ff021916908360ff1602179055506000600460016101000a81548161ffff021916908361ffff1602179055506064600460036101000a81548161ffff021916908361ffff16021790555034801561009457600080fd5b506100b16100a66100b660201b60201c565b6100be60201b60201c565b610182565b600033905090565b60008060009054906101000a900473ffffffffffffffffffffffffffffffffffffffff169050816000806101000a81548173ffffffffffffffffffffffffffffffffffffffff021916908373ffffffffffffffffffffffffffffffffffffffff1602179055508173ffffffffffffffffffffffffffffffffffffffff168173ffffffffffffffffffffffffffffffffffffffff167f8be0079c531659141344cd1fd0a4f28419497f9722a3daafe3b4186f6b6457e060405160405180910390a35050565b6115ca806101916000396000f3fe6080604052600436106100915760003560e01c80634a04774e116100595780634a04774e14610182578063715018a6146101bf5780638da5cb5b146101d6578063a0258d0b14610201578063f2fde38b1461021d57610091565b8063085a10cf1461009657806309e69ede146100bf578063382c8271146100fc5780633bb150a81461012757806347535d7b14610157575b600080fd5b3480156100a257600080fd5b506100bd60048036038101906100b89190610b44565b610246565b005b3480156100cb57600080fd5b506100e660048036038101906100e19190610bcf565b6102df565b6040516100f39190610c95565b60405180910390f35b34801561010857600080fd5b5061011161037f565b60405161011e9190610cc6565b60405180910390f35b610141600480360381019061013c9190610e67565b610399565b60405161014e9190610cc6565b60405180910390f35b34801561016357600080fd5b5061016c610568565b6040516101799190610cc6565b60405180910390f35b34801561018e57600080fd5b506101a960048036038101906101a49190610ee9565b61057b565b6040516101b69190610f2f565b60405180910390f35b3480156101cb57600080fd5b506101d46105a1565b005b3480156101e257600080fd5b506101eb610629565b6040516101f89190610f59565b60405180910390f35b61021b60048036038101906102169190611029565b610652565b005b34801561022957600080fd5b50610244600480360381019061023f9190610bcf565b610889565b005b61024e610980565b73ffffffffffffffffffffffffffffffffffffffff1661026c610629565b73ffffffffffffffffffffffffffffffffffffffff16146102c2576040517f08c379a00000000000000000000000000000000000000000000000000000000081526004016102b9906110be565b60405180910390fd5b80600060146101000a81548160ff02191690831515021790555050565b600560205280600052604060002060009150905080546102fe9061110d565b80601f016020809104026020016040519081016040528092919081815260200182805461032a9061110d565b80156103775780601f1061034c57610100808354040283529160200191610377565b820191906000526020600020905b81548152906001019060200180831161035a57829003601f168201915b505050505081565b600061012c600154610391919061116d565b421015905090565b60006103a3610980565b73ffffffffffffffffffffffffffffffffffffffff166103c1610629565b73ffffffffffffffffffffffffffffffffffffffff1614610417576040517f08c379a000000000000000000000000000000000000000000000000000000000815260040161040e906110be565b60405180910390fd5b60005b82518161ffff161015610556576000610441600460009054906101000a900460ff1661057b565b90506000848361ffff168151811061045c5761045b6111c3565b5b602002602001015173ffffffffffffffffffffffffffffffffffffffff166108fc839081150290604051600060405180830381858888f19350505050905080156105415781600360008282546104b291906111f2565b9250508190555060008361ffff16036104fd576002600460008282829054906101000a900460ff166104e49190611255565b92506101000a81548160ff021916908360ff1602179055505b60038361ffff161115610540576064606060035461051b9190611286565b61052591906112b7565b600460006101000a81548160ff021916908360ff1602179055505b5b5050808061054e9061131f565b91505061041a565b5061055f610988565b60019050919050565b600060149054906101000a900460ff1681565b600060648261058a9190611255565b60ff1660035461059a91906112b7565b9050919050565b6105a9610980565b73ffffffffffffffffffffffffffffffffffffffff166105c7610629565b73ffffffffffffffffffffffffffffffffffffffff161461061d576040517f08c379a0000000000000000000000000000000000000000000000000000000008152600401610614906110be565b60405180910390fd5b6106276000610991565b565b60008060009054906101000a900473ffffffffffffffffffffffffffffffffffffffff16905090565b600460039054906101000a900461ffff1661ffff16600460019054906101000a900461ffff1661ffff16106106bc576040517f08c379a00000000000000000000000000000000000000000000000000000000081526004016106b3906113bb565b60405180910390fd5b600260009054906101000a900463ffffffff1663ffffffff16341015610717576040517f08c379a000000000000000000000000000000000000000000000000000000000815260040161070e90611427565b60405180910390fd5b6000600560003373ffffffffffffffffffffffffffffffffffffffff1673ffffffffffffffffffffffffffffffffffffffff16815260200190815260200160002080546107639061110d565b9050146107a5576040517f08c379a000000000000000000000000000000000000000000000000000000000815260040161079c906114b9565b60405180910390fd5b34600360008282546107b7919061116d565b9250508190555080600560003373ffffffffffffffffffffffffffffffffffffffff1673ffffffffffffffffffffffffffffffffffffffff1681526020019081526020016000209080519060200190610811929190610a55565b506004600181819054906101000a900461ffff16809291906108329061131f565b91906101000a81548161ffff021916908361ffff160217905550507f69ca02dd4edd7bf0a4abb9ed3b7af3f14778db5d61921c7dc7cd545266326de2333460405161087e9291906114d9565b60405180910390a150565b610891610980565b73ffffffffffffffffffffffffffffffffffffffff166108af610629565b73ffffffffffffffffffffffffffffffffffffffff1614610905576040517f08c379a00000000000000000000000000000000000000000000000000000000081526004016108fc906110be565b60405180910390fd5b600073ffffffffffffffffffffffffffffffffffffffff168173ffffffffffffffffffffffffffffffffffffffff1603610974576040517f08c379a000000000000000000000000000000000000000000000000000000000815260040161096b90611574565b60405180910390fd5b61097d81610991565b50565b600033905090565b42600181905550565b60008060009054906101000a900473ffffffffffffffffffffffffffffffffffffffff169050816000806101000a81548173ffffffffffffffffffffffffffffffffffffffff021916908373ffffffffffffffffffffffffffffffffffffffff1602179055508173ffffffffffffffffffffffffffffffffffffffff168173ffffffffffffffffffffffffffffffffffffffff167f8be0079c531659141344cd1fd0a4f28419497f9722a3daafe3b4186f6b6457e060405160405180910390a35050565b828054610a619061110d565b90600052602060002090601f016020900481019282610a835760008555610aca565b82601f10610a9c57805160ff1916838001178555610aca565b82800160010185558215610aca579182015b82811115610ac9578251825591602001919060010190610aae565b5b509050610ad79190610adb565b5090565b5b80821115610af4576000816000905550600101610adc565b5090565b6000604051905090565b600080fd5b600080fd5b60008115159050919050565b610b2181610b0c565b8114610b2c57600080fd5b50565b600081359050610b3e81610b18565b92915050565b600060208284031215610b5a57610b59610b02565b5b6000610b6884828501610b2f565b91505092915050565b600073ffffffffffffffffffffffffffffffffffffffff82169050919050565b6000610b9c82610b71565b9050919050565b610bac81610b91565b8114610bb757600080fd5b50565b600081359050610bc981610ba3565b92915050565b600060208284031215610be557610be4610b02565b5b6000610bf384828501610bba565b91505092915050565b600081519050919050565b600082825260208201905092915050565b60005b83811015610c36578082015181840152602081019050610c1b565b83811115610c45576000848401525b50505050565b6000601f19601f8301169050919050565b6000610c6782610bfc565b610c718185610c07565b9350610c81818560208601610c18565b610c8a81610c4b565b840191505092915050565b60006020820190508181036000830152610caf8184610c5c565b905092915050565b610cc081610b0c565b82525050565b6000602082019050610cdb6000830184610cb7565b92915050565b600080fd5b7f4e487b7100000000000000000000000000000000000000000000000000000000600052604160045260246000fd5b610d1e82610c4b565b810181811067ffffffffffffffff82111715610d3d57610d3c610ce6565b5b80604052505050565b6000610d50610af8565b9050610d5c8282610d15565b919050565b600067ffffffffffffffff821115610d7c57610d7b610ce6565b5b602082029050602081019050919050565b600080fd5b6000610d9d82610b71565b9050919050565b610dad81610d92565b8114610db857600080fd5b50565b600081359050610dca81610da4565b92915050565b6000610de3610dde84610d61565b610d46565b90508083825260208201905060208402830185811115610e0657610e05610d8d565b5b835b81811015610e2f5780610e1b8882610dbb565b845260208401935050602081019050610e08565b5050509392505050565b600082601f830112610e4e57610e4d610ce1565b5b8135610e5e848260208601610dd0565b91505092915050565b600060208284031215610e7d57610e7c610b02565b5b600082013567ffffffffffffffff811115610e9b57610e9a610b07565b5b610ea784828501610e39565b91505092915050565b600060ff82169050919050565b610ec681610eb0565b8114610ed157600080fd5b50565b600081359050610ee381610ebd565b92915050565b600060208284031215610eff57610efe610b02565b5b6000610f0d84828501610ed4565b91505092915050565b6000819050919050565b610f2981610f16565b82525050565b6000602082019050610f446000830184610f20565b92915050565b610f5381610b91565b82525050565b6000602082019050610f6e6000830184610f4a565b92915050565b600080fd5b600067ffffffffffffffff821115610f9457610f93610ce6565b5b610f9d82610c4b565b9050602081019050919050565b82818337600083830152505050565b6000610fcc610fc784610f79565b610d46565b905082815260208101848484011115610fe857610fe7610f74565b5b610ff3848285610faa565b509392505050565b600082601f8301126110105761100f610ce1565b5b8135611020848260208601610fb9565b91505092915050565b60006020828403121561103f5761103e610b02565b5b600082013567ffffffffffffffff81111561105d5761105c610b07565b5b61106984828501610ffb565b91505092915050565b7f4f776e61626c653a2063616c6c6572206973206e6f7420746865206f776e6572600082015250565b60006110a8602083610c07565b91506110b382611072565b602082019050919050565b600060208201905081810360008301526110d78161109b565b9050919050565b7f4e487b7100000000000000000000000000000000000000000000000000000000600052602260045260246000fd5b6000600282049050600182168061112557607f821691505b602082108103611138576111376110de565b5b50919050565b7f4e487b7100000000000000000000000000000000000000000000000000000000600052601160045260246000fd5b600061117882610f16565b915061118383610f16565b9250827fffffffffffffffffffffffffffffffffffffffffffffffffffffffffffffffff038211156111b8576111b761113e565b5b828201905092915050565b7f4e487b7100000000000000000000000000000000000000000000000000000000600052603260045260246000fd5b60006111fd82610f16565b915061120883610f16565b92508282101561121b5761121a61113e565b5b828203905092915050565b7f4e487b7100000000000000000000000000000000000000000000000000000000600052601260045260246000fd5b600061126082610eb0565b915061126b83610eb0565b92508261127b5761127a611226565b5b828204905092915050565b600061129182610f16565b915061129c83610f16565b9250826112ac576112ab611226565b5b828204905092915050565b60006112c282610f16565b91506112cd83610f16565b9250817fffffffffffffffffffffffffffffffffffffffffffffffffffffffffffffffff04831182151516156113065761130561113e565b5b828202905092915050565b600061ffff82169050919050565b600061132a82611311565b915061ffff820361133e5761133d61113e565b5b600182019050919050565b7f5468657265206973206e6f206d6f726520737061636520666f7220796f75207460008201527f6f206a6f696e0000000000000000000000000000000000000000000000000000602082015250565b60006113a5602683610c07565b91506113b082611349565b604082019050919050565b600060208201905081810360008301526113d481611398565b9050919050565b7f4e656564206d6f72652045544820746f20616363657373204c6f747465727900600082015250565b6000611411601f83610c07565b915061141c826113db565b602082019050919050565b6000602082019050818103600083015261144081611404565b9050919050565b7f596f752063616e2774207061727469636970617465206d6f7265207468616e2060008201527f6f6e636520696e20746865206c6f747465727900000000000000000000000000602082015250565b60006114a3603383610c07565b91506114ae82611447565b604082019050919050565b600060208201905081810360008301526114d281611496565b9050919050565b60006040820190506114ee6000830185610f4a565b6114fb6020830184610f20565b9392505050565b7f4f776e61626c653a206e6577206f776e657220697320746865207a65726f206160008201527f6464726573730000000000000000000000000000000000000000000000000000602082015250565b600061155e602683610c07565b915061156982611502565b604082019050919050565b6000602082019050818103600083015261158d81611551565b905091905056fea2646970667358221220bb6bb66484a320ee33a83d1105de380b2bbc4bc0144f43c6928f5e71d89f2fbe64736f6c634300080d0033",
  "immutableReferences": {},
  "source": "// SPDX-License-Identifier: MIT\npragma solidity ^0.8.0;\n\n\nimport \"@openzeppelin/contracts/access/Ownable.sol\";\n\ncontract Lottery is Ownable {\n    bool public isOpen;\n\n    uint256 lastLotteryTimestamp = block.timestamp;\n\n    uint32 minFee = 10000 wei;\n    uint256 currentValue = 0;\n\n    uint8 currentPercent = 20;\n    uint16 participantCount = 0;\n    uint16 maxParticipants = 100;\n\n    struct Player {\n        string name;\n        address playerAddress;\n        uint256 value;\n    }\n\n    mapping(address => string) public participants;\n\n    event Transfer(address _from, uint256 _value);\n\n    function setIsOpen(bool _isOpen) public onlyOwner {\n        isOpen = _isOpen;\n    }\n\n    function updateLastLotteryTimestamp() private {\n        lastLotteryTimestamp = block.timestamp;\n    }\n\n    function fiveMinutesHavePassed() public view returns (bool) {\n        return (block.timestamp >= (lastLotteryTimestamp + 5 minutes));\n    }\n\n    function transfer(string memory name) public payable {\n        require(\n            participantCount < maxParticipants,\n            \"There is no more space for you to join\"\n        );\n        require(msg.value >= minFee, \"Need more ETH to access Lottery\");\n        require(\n            bytes(participants[msg.sender]).length == 0,\n            \"You can't participate more than once in the lottery\"\n        );\n\n        currentValue += msg.value;\n\n        participants[msg.sender] = name;\n        participantCount++;\n\n        emit Transfer(msg.sender, msg.value);\n    }\n\n    function getPercentValue(uint8 percent) public view returns (uint256) {\n        return currentValue * (percent / 100);\n    }\n\n    function sendEthToWinners(address payable[] memory currentWinners)\n        public\n        payable\n        onlyOwner\n        returns (bool)\n    {\n        for (uint16 i = 0; i < currentWinners.length; i++) {\n            uint256 curWinnerEther = getPercentValue(currentPercent);\n            bool sent = currentWinners[i].send(curWinnerEther);\n\n            if (sent) {\n                currentValue -= curWinnerEther;\n\n                if (i == 0) currentPercent /= 2;\n\n                if (i > 3) currentPercent = uint8((currentValue / 96) * 100);\n            }\n        }\n\n        updateLastLotteryTimestamp();\n\n        return true;\n    }\n}\n",
  "sourcePath": "/home/nuxxxcake/Desktop/ether_erc/contracts/Lottery.sol",
  "compiler": {
    "name": "solc",
    "version": "0.8.13+commit.abaa5c0e.Emscripten.clang"
  },
  "schemaVersion": "3.4.6",
  "updatedAt": "2022-04-21T12:19:52.146Z",
  "networkType": "ethereum",
  "devdoc": {
    "kind": "dev",
    "methods": {
      "owner()": {
        "details": "Returns the address of the current owner."
      },
      "renounceOwnership()": {
        "details": "Leaves the contract without owner. It will not be possible to call `onlyOwner` functions anymore. Can only be called by the current owner. NOTE: Renouncing ownership will leave the contract without an owner, thereby removing any functionality that is only available to the owner."
      },
      "transferOwnership(address)": {
        "details": "Transfers ownership of the contract to a new account (`newOwner`). Can only be called by the current owner."
      }
    },
    "version": 1
  },
  "userdoc": {
    "kind": "user",
    "methods": {},
    "version": 1
  }
}