{
  "contractName": "NuxToken",
  "abi": [
    {
      "inputs": [
        {
          "internalType": "uint256",
          "name": "_initialSupply",
          "type": "uint256"
        }
      ],
      "stateMutability": "nonpayable",
      "type": "constructor"
    },
    {
      "anonymous": false,
      "inputs": [
        {
          "indexed": true,
          "internalType": "address",
          "name": "owner",
          "type": "address"
        },
        {
          "indexed": true,
          "internalType": "address",
          "name": "spender",
          "type": "address"
        },
        {
          "indexed": false,
          "internalType": "uint256",
          "name": "value",
          "type": "uint256"
        }
      ],
      "name": "Approval",
      "type": "event"
    },
    {
      "anonymous": false,
      "inputs": [
        {
          "indexed": true,
          "internalType": "address",
          "name": "from",
          "type": "address"
        },
        {
          "indexed": true,
          "internalType": "address",
          "name": "to",
          "type": "address"
        },
        {
          "indexed": false,
          "internalType": "uint256",
          "name": "value",
          "type": "uint256"
        }
      ],
      "name": "Transfer",
      "type": "event"
    },
    {
      "inputs": [
        {
          "internalType": "address",
          "name": "owner",
          "type": "address"
        },
        {
          "internalType": "address",
          "name": "spender",
          "type": "address"
        }
      ],
      "name": "allowance",
      "outputs": [
        {
          "internalType": "uint256",
          "name": "",
          "type": "uint256"
        }
      ],
      "stateMutability": "view",
      "type": "function",
      "constant": true
    },
    {
      "inputs": [
        {
          "internalType": "address",
          "name": "spender",
          "type": "address"
        },
        {
          "internalType": "uint256",
          "name": "amount",
          "type": "uint256"
        }
      ],
      "name": "approve",
      "outputs": [
        {
          "internalType": "bool",
          "name": "",
          "type": "bool"
        }
      ],
      "stateMutability": "nonpayable",
      "type": "function"
    },
    {
      "inputs": [
        {
          "internalType": "address",
          "name": "account",
          "type": "address"
        }
      ],
      "name": "balanceOf",
      "outputs": [
        {
          "internalType": "uint256",
          "name": "",
          "type": "uint256"
        }
      ],
      "stateMutability": "view",
      "type": "function",
      "constant": true
    },
    {
      "inputs": [],
      "name": "decimals",
      "outputs": [
        {
          "internalType": "uint8",
          "name": "",
          "type": "uint8"
        }
      ],
      "stateMutability": "view",
      "type": "function",
      "constant": true
    },
    {
      "inputs": [
        {
          "internalType": "address",
          "name": "spender",
          "type": "address"
        },
        {
          "internalType": "uint256",
          "name": "subtractedValue",
          "type": "uint256"
        }
      ],
      "name": "decreaseAllowance",
      "outputs": [
        {
          "internalType": "bool",
          "name": "",
          "type": "bool"
        }
      ],
      "stateMutability": "nonpayable",
      "type": "function"
    },
    {
      "inputs": [
        {
          "internalType": "address",
          "name": "spender",
          "type": "address"
        },
        {
          "internalType": "uint256",
          "name": "addedValue",
          "type": "uint256"
        }
      ],
      "name": "increaseAllowance",
      "outputs": [
        {
          "internalType": "bool",
          "name": "",
          "type": "bool"
        }
      ],
      "stateMutability": "nonpayable",
      "type": "function"
    },
    {
      "inputs": [],
      "name": "name",
      "outputs": [
        {
          "internalType": "string",
          "name": "",
          "type": "string"
        }
      ],
      "stateMutability": "view",
      "type": "function",
      "constant": true
    },
    {
      "inputs": [],
      "name": "symbol",
      "outputs": [
        {
          "internalType": "string",
          "name": "",
          "type": "string"
        }
      ],
      "stateMutability": "view",
      "type": "function",
      "constant": true
    },
    {
      "inputs": [],
      "name": "totalSupply",
      "outputs": [
        {
          "internalType": "uint256",
          "name": "",
          "type": "uint256"
        }
      ],
      "stateMutability": "view",
      "type": "function",
      "constant": true
    },
    {
      "inputs": [
        {
          "internalType": "address",
          "name": "to",
          "type": "address"
        },
        {
          "internalType": "uint256",
          "name": "amount",
          "type": "uint256"
        }
      ],
      "name": "transfer",
      "outputs": [
        {
          "internalType": "bool",
          "name": "",
          "type": "bool"
        }
      ],
      "stateMutability": "nonpayable",
      "type": "function"
    },
    {
      "inputs": [
        {
          "internalType": "address",
          "name": "from",
          "type": "address"
        },
        {
          "internalType": "address",
          "name": "to",
          "type": "address"
        },
        {
          "internalType": "uint256",
          "name": "amount",
          "type": "uint256"
        }
      ],
      "name": "transferFrom",
      "outputs": [
        {
          "internalType": "bool",
          "name": "",
          "type": "bool"
        }
      ],
      "stateMutability": "nonpayable",
      "type": "function"
    },
    {
      "inputs": [
        {
          "internalType": "uint256",
          "name": "_amount",
          "type": "uint256"
        }
      ],
      "name": "buyToken",
      "outputs": [],
      "stateMutability": "payable",
      "type": "function",
      "payable": true
    },
    {
      "inputs": [
        {
          "internalType": "uint256",
          "name": "_amount",
          "type": "uint256"
        }
      ],
      "name": "sellToken",
      "outputs": [],
      "stateMutability": "payable",
      "type": "function",
      "payable": true
    },
    {
      "inputs": [],
      "name": "withdrawEth",
      "outputs": [],
      "stateMutability": "nonpayable",
      "type": "function"
    }
  ],
  "bytecode": "0x60806040523480156200001157600080fd5b5060405162001d1c38038062001d1c8339818101604052810190620000379190620003a3565b6040518060400160405280600881526020017f4e7578546f6b656e0000000000000000000000000000000000000000000000008152506040518060400160405280600381526020017f4e585400000000000000000000000000000000000000000000000000000000008152508160039080519060200190620000bb929190620002b3565b508060049080519060200190620000d4929190620002b3565b505050620000e933826200013160201b60201c565b33600560006101000a81548173ffffffffffffffffffffffffffffffffffffffff021916908373ffffffffffffffffffffffffffffffffffffffff1602179055505062000576565b600073ffffffffffffffffffffffffffffffffffffffff168273ffffffffffffffffffffffffffffffffffffffff1603620001a3576040517f08c379a00000000000000000000000000000000000000000000000000000000081526004016200019a9062000436565b60405180910390fd5b620001b760008383620002a960201b60201c565b8060026000828254620001cb919062000487565b92505081905550806000808473ffffffffffffffffffffffffffffffffffffffff1673ffffffffffffffffffffffffffffffffffffffff168152602001908152602001600020600082825462000222919062000487565b925050819055508173ffffffffffffffffffffffffffffffffffffffff16600073ffffffffffffffffffffffffffffffffffffffff167fddf252ad1be2c89b69c2b068fc378daa952ba7f163c4a11628f55a4df523b3ef83604051620002899190620004f5565b60405180910390a3620002a560008383620002ae60201b60201c565b5050565b505050565b505050565b828054620002c19062000541565b90600052602060002090601f016020900481019282620002e5576000855562000331565b82601f106200030057805160ff191683800117855562000331565b8280016001018555821562000331579182015b828111156200033057825182559160200191906001019062000313565b5b50905062000340919062000344565b5090565b5b808211156200035f57600081600090555060010162000345565b5090565b600080fd5b6000819050919050565b6200037d8162000368565b81146200038957600080fd5b50565b6000815190506200039d8162000372565b92915050565b600060208284031215620003bc57620003bb62000363565b5b6000620003cc848285016200038c565b91505092915050565b600082825260208201905092915050565b7f45524332303a206d696e7420746f20746865207a65726f206164647265737300600082015250565b60006200041e601f83620003d5565b91506200042b82620003e6565b602082019050919050565b6000602082019050818103600083015262000451816200040f565b9050919050565b7f4e487b7100000000000000000000000000000000000000000000000000000000600052601160045260246000fd5b6000620004948262000368565b9150620004a18362000368565b9250827fffffffffffffffffffffffffffffffffffffffffffffffffffffffffffffffff03821115620004d957620004d862000458565b5b828201905092915050565b620004ef8162000368565b82525050565b60006020820190506200050c6000830184620004e4565b92915050565b7f4e487b7100000000000000000000000000000000000000000000000000000000600052602260045260246000fd5b600060028204905060018216806200055a57607f821691505b60208210810362000570576200056f62000512565b5b50919050565b61179680620005866000396000f3fe6080604052600436106100dd5760003560e01c8063395093511161007f578063a0ef91df11610059578063a0ef91df146102ba578063a457c2d7146102d1578063a9059cbb1461030e578063dd62ed3e1461034b576100dd565b8063395093511461021557806370a082311461025257806395d89b411461028f576100dd565b80632397e4d7116100bb5780632397e4d71461017557806323b872dd146101915780632d296bf1146101ce578063313ce567146101ea576100dd565b806306fdde03146100e2578063095ea7b31461010d57806318160ddd1461014a575b600080fd5b3480156100ee57600080fd5b506100f7610388565b6040516101049190610efe565b60405180910390f35b34801561011957600080fd5b50610134600480360381019061012f9190610fb9565b61041a565b6040516101419190611014565b60405180910390f35b34801561015657600080fd5b5061015f61043d565b60405161016c919061103e565b60405180910390f35b61018f600480360381019061018a9190611059565b610447565b005b34801561019d57600080fd5b506101b860048036038101906101b39190611086565b6104c3565b6040516101c59190611014565b60405180910390f35b6101e860048036038101906101e39190611059565b6104f2565b005b3480156101f657600080fd5b506101ff610578565b60405161020c91906110f5565b60405180910390f35b34801561022157600080fd5b5061023c60048036038101906102379190610fb9565b610581565b6040516102499190611014565b60405180910390f35b34801561025e57600080fd5b5061027960048036038101906102749190611110565b61062b565b604051610286919061103e565b60405180910390f35b34801561029b57600080fd5b506102a4610673565b6040516102b19190610efe565b60405180910390f35b3480156102c657600080fd5b506102cf610705565b005b3480156102dd57600080fd5b506102f860048036038101906102f39190610fb9565b6107eb565b6040516103059190611014565b60405180910390f35b34801561031a57600080fd5b5061033560048036038101906103309190610fb9565b6108d5565b6040516103429190611014565b60405180910390f35b34801561035757600080fd5b50610372600480360381019061036d919061113d565b6108f8565b60405161037f919061103e565b60405180910390f35b606060038054610397906111ac565b80601f01602080910402602001604051908101604052809291908181526020018280546103c3906111ac565b80156104105780601f106103e557610100808354040283529160200191610410565b820191906000526020600020905b8154815290600101906020018083116103f357829003601f168201915b5050505050905090565b60008061042561097f565b9050610432818585610987565b600191505092915050565b6000600254905090565b80600660003373ffffffffffffffffffffffffffffffffffffffff1673ffffffffffffffffffffffffffffffffffffffff168152602001908152602001600020819055506104b7600560009054906101000a900473ffffffffffffffffffffffffffffffffffffffff16826108d5565b506104c0610705565b50565b6000806104ce61097f565b90506104db858285610b50565b6104e6858585610bdc565b60019150509392505050565b670de0b6b3a764000034610506919061123b565b8114610547576040517f08c379a000000000000000000000000000000000000000000000000000000000815260040161053e906112b8565b60405180910390fd5b610574600560009054906101000a900473ffffffffffffffffffffffffffffffffffffffff1633836104c3565b5050565b60006012905090565b60008061058c61097f565b9050610620818585600160008673ffffffffffffffffffffffffffffffffffffffff1673ffffffffffffffffffffffffffffffffffffffff16815260200190815260200160002060008973ffffffffffffffffffffffffffffffffffffffff1673ffffffffffffffffffffffffffffffffffffffff1681526020019081526020016000205461061b91906112d8565b610987565b600191505092915050565b60008060008373ffffffffffffffffffffffffffffffffffffffff1673ffffffffffffffffffffffffffffffffffffffff168152602001908152602001600020549050919050565b606060048054610682906111ac565b80601f01602080910402602001604051908101604052809291908181526020018280546106ae906111ac565b80156106fb5780601f106106d0576101008083540402835291602001916106fb565b820191906000526020600020905b8154815290600101906020018083116106de57829003601f168201915b5050505050905090565b6000600660003373ffffffffffffffffffffffffffffffffffffffff1673ffffffffffffffffffffffffffffffffffffffff1681526020019081526020016000205490506000600660003373ffffffffffffffffffffffffffffffffffffffff1673ffffffffffffffffffffffffffffffffffffffff168152602001908152602001600020819055503373ffffffffffffffffffffffffffffffffffffffff166108fc670de0b6b3a7640000836107bc919061132e565b9081150290604051600060405180830381858888f193505050501580156107e7573d6000803e3d6000fd5b5050565b6000806107f661097f565b90506000600160008373ffffffffffffffffffffffffffffffffffffffff1673ffffffffffffffffffffffffffffffffffffffff16815260200190815260200160002060008673ffffffffffffffffffffffffffffffffffffffff1673ffffffffffffffffffffffffffffffffffffffff168152602001908152602001600020549050838110156108bc576040517f08c379a00000000000000000000000000000000000000000000000000000000081526004016108b3906113fa565b60405180910390fd5b6108c98286868403610987565b60019250505092915050565b6000806108e061097f565b90506108ed818585610bdc565b600191505092915050565b6000600160008473ffffffffffffffffffffffffffffffffffffffff1673ffffffffffffffffffffffffffffffffffffffff16815260200190815260200160002060008373ffffffffffffffffffffffffffffffffffffffff1673ffffffffffffffffffffffffffffffffffffffff16815260200190815260200160002054905092915050565b600033905090565b600073ffffffffffffffffffffffffffffffffffffffff168373ffffffffffffffffffffffffffffffffffffffff16036109f6576040517f08c379a00000000000000000000000000000000000000000000000000000000081526004016109ed9061148c565b60405180910390fd5b600073ffffffffffffffffffffffffffffffffffffffff168273ffffffffffffffffffffffffffffffffffffffff1603610a65576040517f08c379a0000000000000000000000000000000000000000000000000000000008152600401610a5c9061151e565b60405180910390fd5b80600160008573ffffffffffffffffffffffffffffffffffffffff1673ffffffffffffffffffffffffffffffffffffffff16815260200190815260200160002060008473ffffffffffffffffffffffffffffffffffffffff1673ffffffffffffffffffffffffffffffffffffffff168152602001908152602001600020819055508173ffffffffffffffffffffffffffffffffffffffff168373ffffffffffffffffffffffffffffffffffffffff167f8c5be1e5ebec7d5bd14f71427d1e84f3dd0314c0f7b2291e5b200ac8c7c3b92583604051610b43919061103e565b60405180910390a3505050565b6000610b5c84846108f8565b90507fffffffffffffffffffffffffffffffffffffffffffffffffffffffffffffffff8114610bd65781811015610bc8576040517f08c379a0000000000000000000000000000000000000000000000000000000008152600401610bbf9061158a565b60405180910390fd5b610bd58484848403610987565b5b50505050565b600073ffffffffffffffffffffffffffffffffffffffff168373ffffffffffffffffffffffffffffffffffffffff1603610c4b576040517f08c379a0000000000000000000000000000000000000000000000000000000008152600401610c429061161c565b60405180910390fd5b600073ffffffffffffffffffffffffffffffffffffffff168273ffffffffffffffffffffffffffffffffffffffff1603610cba576040517f08c379a0000000000000000000000000000000000000000000000000000000008152600401610cb1906116ae565b60405180910390fd5b610cc5838383610e5b565b60008060008573ffffffffffffffffffffffffffffffffffffffff1673ffffffffffffffffffffffffffffffffffffffff16815260200190815260200160002054905081811015610d4b576040517f08c379a0000000000000000000000000000000000000000000000000000000008152600401610d4290611740565b60405180910390fd5b8181036000808673ffffffffffffffffffffffffffffffffffffffff1673ffffffffffffffffffffffffffffffffffffffff16815260200190815260200160002081905550816000808573ffffffffffffffffffffffffffffffffffffffff1673ffffffffffffffffffffffffffffffffffffffff1681526020019081526020016000206000828254610dde91906112d8565b925050819055508273ffffffffffffffffffffffffffffffffffffffff168473ffffffffffffffffffffffffffffffffffffffff167fddf252ad1be2c89b69c2b068fc378daa952ba7f163c4a11628f55a4df523b3ef84604051610e42919061103e565b60405180910390a3610e55848484610e60565b50505050565b505050565b505050565b600081519050919050565b600082825260208201905092915050565b60005b83811015610e9f578082015181840152602081019050610e84565b83811115610eae576000848401525b50505050565b6000601f19601f8301169050919050565b6000610ed082610e65565b610eda8185610e70565b9350610eea818560208601610e81565b610ef381610eb4565b840191505092915050565b60006020820190508181036000830152610f188184610ec5565b905092915050565b600080fd5b600073ffffffffffffffffffffffffffffffffffffffff82169050919050565b6000610f5082610f25565b9050919050565b610f6081610f45565b8114610f6b57600080fd5b50565b600081359050610f7d81610f57565b92915050565b6000819050919050565b610f9681610f83565b8114610fa157600080fd5b50565b600081359050610fb381610f8d565b92915050565b60008060408385031215610fd057610fcf610f20565b5b6000610fde85828601610f6e565b9250506020610fef85828601610fa4565b9150509250929050565b60008115159050919050565b61100e81610ff9565b82525050565b60006020820190506110296000830184611005565b92915050565b61103881610f83565b82525050565b6000602082019050611053600083018461102f565b92915050565b60006020828403121561106f5761106e610f20565b5b600061107d84828501610fa4565b91505092915050565b60008060006060848603121561109f5761109e610f20565b5b60006110ad86828701610f6e565b93505060206110be86828701610f6e565b92505060406110cf86828701610fa4565b9150509250925092565b600060ff82169050919050565b6110ef816110d9565b82525050565b600060208201905061110a60008301846110e6565b92915050565b60006020828403121561112657611125610f20565b5b600061113484828501610f6e565b91505092915050565b6000806040838503121561115457611153610f20565b5b600061116285828601610f6e565b925050602061117385828601610f6e565b9150509250929050565b7f4e487b7100000000000000000000000000000000000000000000000000000000600052602260045260246000fd5b600060028204905060018216806111c457607f821691505b6020821081036111d7576111d661117d565b5b50919050565b7f4e487b7100000000000000000000000000000000000000000000000000000000600052601260045260246000fd5b7f4e487b7100000000000000000000000000000000000000000000000000000000600052601160045260246000fd5b600061124682610f83565b915061125183610f83565b925082611261576112606111dd565b5b828204905092915050565b7f496e636f727265637420616d6f756e7400000000000000000000000000000000600082015250565b60006112a2601083610e70565b91506112ad8261126c565b602082019050919050565b600060208201905081810360008301526112d181611295565b9050919050565b60006112e382610f83565b91506112ee83610f83565b9250827fffffffffffffffffffffffffffffffffffffffffffffffffffffffffffffffff038211156113235761132261120c565b5b828201905092915050565b600061133982610f83565b915061134483610f83565b9250817fffffffffffffffffffffffffffffffffffffffffffffffffffffffffffffffff048311821515161561137d5761137c61120c565b5b828202905092915050565b7f45524332303a2064656372656173656420616c6c6f77616e63652062656c6f7760008201527f207a65726f000000000000000000000000000000000000000000000000000000602082015250565b60006113e4602583610e70565b91506113ef82611388565b604082019050919050565b60006020820190508181036000830152611413816113d7565b9050919050565b7f45524332303a20617070726f76652066726f6d20746865207a65726f2061646460008201527f7265737300000000000000000000000000000000000000000000000000000000602082015250565b6000611476602483610e70565b91506114818261141a565b604082019050919050565b600060208201905081810360008301526114a581611469565b9050919050565b7f45524332303a20617070726f766520746f20746865207a65726f20616464726560008201527f7373000000000000000000000000000000000000000000000000000000000000602082015250565b6000611508602283610e70565b9150611513826114ac565b604082019050919050565b60006020820190508181036000830152611537816114fb565b9050919050565b7f45524332303a20696e73756666696369656e7420616c6c6f77616e6365000000600082015250565b6000611574601d83610e70565b915061157f8261153e565b602082019050919050565b600060208201905081810360008301526115a381611567565b9050919050565b7f45524332303a207472616e736665722066726f6d20746865207a65726f20616460008201527f6472657373000000000000000000000000000000000000000000000000000000602082015250565b6000611606602583610e70565b9150611611826115aa565b604082019050919050565b60006020820190508181036000830152611635816115f9565b9050919050565b7f45524332303a207472616e7366657220746f20746865207a65726f206164647260008201527f6573730000000000000000000000000000000000000000000000000000000000602082015250565b6000611698602383610e70565b91506116a38261163c565b604082019050919050565b600060208201905081810360008301526116c78161168b565b9050919050565b7f45524332303a207472616e7366657220616d6f756e742065786365656473206260008201527f616c616e63650000000000000000000000000000000000000000000000000000602082015250565b600061172a602683610e70565b9150611735826116ce565b604082019050919050565b600060208201905081810360008301526117598161171d565b905091905056fea2646970667358221220046c1f55b40539fbd06bfedfcc4892286a69e737e99fad9036312c1cf3aaa30764736f6c634300080d0033",
  "immutableReferences": {},
  "source": "// SPDX-License-Identifier: MIT\npragma solidity ^0.8.0;\n\nimport \"@openzeppelin/contracts/token/ERC20/ERC20.sol\";\n\ncontract NuxToken is ERC20 {\n    address private owner;\n    mapping(address => uint256) pendingWithdrawals;\n\n    constructor(uint256 _initialSupply) public ERC20(\"NuxToken\", \"NXT\") {\n        _mint(msg.sender, _initialSupply);\n        owner = msg.sender;\n    }\n\n    function buyToken(uint256 _amount) external payable {\n        require(_amount == ((msg.value / 1 ether)), \"Incorrect amount\");\n        transferFrom(owner, msg.sender, _amount);\n    }\n\n    function sellToken(uint256 _amount) external payable {\n        pendingWithdrawals[msg.sender] = _amount;\n        transfer(owner, _amount);\n        withdrawEth();\n    }\n\n    function withdrawEth() public {\n        uint256 amount = pendingWithdrawals[msg.sender];\n        // Making it zero before transfering to prevent reentrance attack\n        pendingWithdrawals[msg.sender] = 0;\n        payable(msg.sender).transfer(amount * 1 ether);\n    }\n}\n",
  "sourcePath": "/home/nuxxxcake/Desktop/ether_erc/contracts/NuxToken.sol",
  "compiler": {
    "name": "solc",
    "version": "0.8.13+commit.abaa5c0e.Emscripten.clang"
  },
  "schemaVersion": "3.4.6",
  "updatedAt": "2022-04-21T12:19:52.176Z",
  "networkType": "ethereum",
  "devdoc": {
    "kind": "dev",
    "methods": {
      "allowance(address,address)": {
        "details": "See {IERC20-allowance}."
      },
      "approve(address,uint256)": {
        "details": "See {IERC20-approve}. NOTE: If `amount` is the maximum `uint256`, the allowance is not updated on `transferFrom`. This is semantically equivalent to an infinite approval. Requirements: - `spender` cannot be the zero address."
      },
      "balanceOf(address)": {
        "details": "See {IERC20-balanceOf}."
      },
      "decimals()": {
        "details": "Returns the number of decimals used to get its user representation. For example, if `decimals` equals `2`, a balance of `505` tokens should be displayed to a user as `5.05` (`505 / 10 ** 2`). Tokens usually opt for a value of 18, imitating the relationship between Ether and Wei. This is the value {ERC20} uses, unless this function is overridden; NOTE: This information is only used for _display_ purposes: it in no way affects any of the arithmetic of the contract, including {IERC20-balanceOf} and {IERC20-transfer}."
      },
      "decreaseAllowance(address,uint256)": {
        "details": "Atomically decreases the allowance granted to `spender` by the caller. This is an alternative to {approve} that can be used as a mitigation for problems described in {IERC20-approve}. Emits an {Approval} event indicating the updated allowance. Requirements: - `spender` cannot be the zero address. - `spender` must have allowance for the caller of at least `subtractedValue`."
      },
      "increaseAllowance(address,uint256)": {
        "details": "Atomically increases the allowance granted to `spender` by the caller. This is an alternative to {approve} that can be used as a mitigation for problems described in {IERC20-approve}. Emits an {Approval} event indicating the updated allowance. Requirements: - `spender` cannot be the zero address."
      },
      "name()": {
        "details": "Returns the name of the token."
      },
      "symbol()": {
        "details": "Returns the symbol of the token, usually a shorter version of the name."
      },
      "totalSupply()": {
        "details": "See {IERC20-totalSupply}."
      },
      "transfer(address,uint256)": {
        "details": "See {IERC20-transfer}. Requirements: - `to` cannot be the zero address. - the caller must have a balance of at least `amount`."
      },
      "transferFrom(address,address,uint256)": {
        "details": "See {IERC20-transferFrom}. Emits an {Approval} event indicating the updated allowance. This is not required by the EIP. See the note at the beginning of {ERC20}. NOTE: Does not update the allowance if the current allowance is the maximum `uint256`. Requirements: - `from` and `to` cannot be the zero address. - `from` must have a balance of at least `amount`. - the caller must have allowance for ``from``'s tokens of at least `amount`."
      }
    },
    "version": 1
  },
  "userdoc": {
    "kind": "user",
    "methods": {},
    "version": 1
  }
}